:020000040800F2
:100000000000032041050008F1210008FF2100083D
:10001000052200080B220008112200080000000041
:10002000000000000000000000000000172200088F
:1000300025220008000000003322000841220008A9
:10004000950500089505000895050008B7220008E9
:100050009505000895050008950500089505000818
:100060009505000895050008A922000895050008D7
:1000700095050008950500084D2200089505000823
:1000800095050008950500089505000895050008E8
:1000900095050008950500089505000895050008D8
:1000A00095050008950500089505000895050008C8
:1000B00095050008950500089505000895050008B8
:1000C00095050008950500089505000895050008A8
:1000D00061220008752200089505000895050008B2
:1000E0009505000895050008950500089505000888
:1000F000CF220008C32200088922000895050008C5
:100100009505000895050008950500089505000867
:100110009505000895050008950500089505000857
:10012000950500089505000895220008950500082A
:0C013000950500089505000895050008DD
:1001400010B5054C237833B9044B13B10448AFF311
:1001500000800123237010BDDC020020000000009D
:100160005CCF000808B5034B1BB103490348AFF34C
:10017000008008BD00000000E00200205CCF000805
:10018000034613F8012B002AFBD1181A01387047D7
:1001900001F0FF01102A2BDB10F0070F08D010F838
:1001A000013B013A8B422DD010F0070F42B3F6D13C
:1001B000F0B441EA012141EA014122F007047FF055
:1001C00000070023F0E80256083C85EA010586EAAC
:1001D000010685FA47F5A3FA87F586FA47F6A5FAE8
:1001E00087F68EB9EED1F0BC01F0FF0102F00702F4
:1001F00032B110F8013B013A83EA010313B1F8D19F
:100200000020704701387047002D06BF354603387F
:10021000073815F0010F07D1013015F4807F02BFB8
:10022000013015F4C03F0130F0BC0138704700BF09
:1002300053B94AB9002908BF00281CBF4FF0FF314D
:100240004FF0FF3000F06EB9ADF1080C6DE904CE4F
:1002500000F006F8DDF804E0DDE9022304B07047A1
:100260002DE9F047089D04468C46002B40F0838022
:100270008A42174647D9B2FA82F242B1C2F120004F
:1002800024FA00F09140974040EA010C94404FEA74
:100290001748230CBCFBF8F61FFA87FE08FB16C1B3
:1002A00043EA014306FB0EF1994209D9FB1806F116
:1002B000FF3080F01981994240F21681023E3B44A2
:1002C0005B1AA4B2B3FBF8F008FB103344EA034412
:1002D00000FB0EFEA64509D93C1900F1FF3380F062
:1002E0000581A64540F2028102383C4440EA0640BE
:1002F000A4EB0E0400261DB1D4400023C5E9004341
:100300003146BDE8F08702B9FFDEB2FA82F2002A78
:1003100050D1CB1B4FEA174E1FFA87F80126B3FBCB
:10032000FEFC210C0EFB1C3341EA034108FB0CF3DD
:100330008B4207D979180CF1FF3002D28B4200F2C0
:10034000E9808446C91AA3B2B1FBFEF00EFB10117E
:1003500043EA014408FB00F8A04507D93C1900F125
:10036000FF3302D2A04500F2D9801846A4EB08045E
:1003700040EA0C40BFE78B4209D9002D00F0B18064
:100380000026C5E9000130463146BDE8F087B3FAE2
:1003900083F6002E4AD18B4202D3824200F2B8800B
:1003A000841A61EB030101208C46002DA8D0C5E919
:1003B000004CA5E7C2F1200320FA03F6974001FAAA
:1003C00002F04FEA174ED9403043030CB1FBFEF662
:1003D0001FFA87F80EFB161143EA014306FB08F1EA
:1003E000994204FA02F409D9FB1806F1FF3C80F0A7
:1003F0008D80994240F28A80023E3B445B1A81B272
:10040000B3FBFEF00EFB103341EA034100FB08F39F
:100410008B4207D9791800F1FF3C73D28B4271D916
:1004200002383944CB1A40EA064678E7C6F1200C78
:1004300003FA06F422FA0CF31C4320FA0CF701FA33
:1004400006F34FEA144E21FA0CF11F433B0CB1FBAB
:10045000FEF91FFA84F80EFB191143EA014109FB6A
:1004600008FA8A4502FA06F200FA06F308D961187A
:1004700009F1FF3048D28A4546D9A9F10209214441
:10048000A1EB0A01BFB2B1FBFEF00EFB101147EA6F
:10049000014700FB08F8B84507D9E71900F1FF311B
:1004A0002ED2B8452CD90238274440EA0940A7EBA0
:1004B0000807A0FB02894F45C64649461AD317D004
:1004C0005DB1B3EB0E0267EB010707FA0CFCF240DB
:1004D0004CEA0202F740C5E9002700263146BDE894
:1004E000F0872E4628460BE70646E9E61846FDE665
:1004F0004345E5D2B8EB020E69EB04010138DFE7B2
:100500000846D2E760468DE78146B9E7664675E75B
:1005100030464AE7ACF1020C394413E702383C4458
:1005200024E700BF704700BFD458C4500433C41838
:100530008C42F9D37047036004308842FBD3704784
:100540000C4885460C480D490D4A0023FFF7EFFF84
:100550000C480D490023FFF7F0FF0C480C4900231D
:10056000FFF7EBFF04F03AFB0BF094FC01F088FA84
:10057000FEE700000000032004000020AC00002083
:1005800080DD0008DC020020A4160020E00103202A
:10059000570A0320FEE7000080B483B000AF786004
:1005A000064BD3F8902005497B681343C1F890307F
:1005B00000BF0C37BD465DF8047B7047000800584B
:1005C00080B485B000AF78604FF0B043DA6C4FF084
:1005D000B0417B681343CB644FF0B043DA6C7B6867
:1005E0001340FB60FB6800BF1437BD465DF8047B19
:1005F000704780B485B000AF78604FF0B043D3F857
:100600004C214FF0B0417B681343C1F84C314FF09F
:10061000B043D3F84C217B681340FB60FB6800BFFC
:100620001437BD465DF8047B704780B500AF04F019
:10063000DDFB04F0E1FB4FF48030FFF7ADFF09F084
:10064000C5FB00F021F800F0C3F800BF80BD00003A
:10065000B0B588B000AF0B4B3C1D1D460FCD0FC48D
:1006600095E8070003C422800234130C23700BF0BA
:1006700021F93B1D18460AF01CF800BF2037BD4683
:10068000B0BD00BF74CF000880B588B000AF3B1D7F
:1006900000221A605A609A60DA601A610023BB83F4
:1006A00000237B8300233B830023FB7738E0FB7F21
:1006B000444ADB0013449B79002B2BD0FB7F414A3B
:1006C00052F83330404A93421BD03F4A934223D8DA
:1006D000B3F1904F03D03D4A934209D01CE0FB7F19
:1006E000384ADB0013449A88BB8B1343BB8314E066
:1006F000FB7F344ADB0013449A887B8B13437B8354
:100700000BE0FB7F2F4ADB0013449A883B8B13439B
:100710003B8302E000BF00E000BFFB7F0133FB77BB
:10072000FB7F212BC3D90023FB600123BB60032384
:100730003B61BB8B002B14D0BB8B7B600120FFF790
:100740003FFF0120FFF755FF3B1D19464FF090403A
:1007500005F006F8BB8B002219464FF0904005F0DB
:100760006FF97B8B002B12D07B8B7B600220FFF715
:1007700027FF0220FFF73DFF3B1D1946134804F0F9
:10078000EFFF7B8B00221946104805F059F93B8B8F
:10079000002B13D03B8B7B600420FFF711FF04205C
:1007A000FFF727FF3B1D1946074804F0D9FF3B8B95
:1007B00000221946044805F043F900BF00BF203766
:1007C000BD4680BDC4DA00080008004800040048A7
:1007D00080B400AF00BFBD465DF8047B704780B5B4
:1007E00000AF01F0F1F900BF80BD80B584B000AF6B
:1007F000F8600B467A607B817A897B68F968002013
:1008000000F044FF00BF1037BD4680BD80B483B008
:1008100000AF7860074BD3F8803023F0070205491A
:100820007B681343C1F8803000BF0C37BD465DF8CC
:10083000047B70470004005880B483B000AF786038
:100840004FF0B0439B6823F400424FF0B0417B6807
:1008500013438B6000BF0C37BD465DF8047B7047C7
:1008600080B500AF00F014F80849002000F006FD44
:10087000FFF7DBFE012101200BF0BAF800F067F86A
:1008800000F075F800F012F800BF80BDD015002010
:1008900080B500AF4FF40040FFF7CEFF0BF096F8A5
:1008A0000420FFF7B3FF00BF80BD000080B588B013
:1008B00000AF0AF049FE114A00214FF480600BF0AE
:1008C000ABF90F4B3B600F4B7B603B4619460E4824
:1008D00009F006FF0D4BBB600D4BFB600D4B3B6100
:1008E00040F23C537B6107F1080318460AF06EFFA3
:1008F0000AF024FE00BF2037BD4680BD19A70008BE
:1009000024070320190900082F0900083C090320C7
:1009100030080320E801032080B483B000AF034611
:10092000FB7100BF0C37BD465DF8047B704780B596
:1009300082B000AF7860FFF78BFE01F06FFD002101
:1009400001200BF055F800BF0837BD4680BD80B5CB
:1009500000AF002004F062F8012004F05FF80220EC
:1009600004F05CF8012004F093F800BF80BD80B56E
:1009700000AF0121002004F0BFF800BF80BD80B4AB
:1009800000AF00BFBD465DF8047B704780B582B004
:1009900000AF786039604FF0FF300BF059F800BFBE
:1009A0000837BD4680BD80B582B000AF78600021B9
:1009B0004FF480600BF052F900BF0837BD4680BD90
:1009C00080B582B000AF786002200BF0B3F900BFB1
:1009D0000837BD4680BD80B582B000AF7860022088
:1009E0000BF0C8F900BF0837BD4680BD80B582B0A6
:1009F00000AF0346FB80FB88102B06D0102B0DDCCC
:100A0000012B05D0022B06D008E002F0E1FB06E046
:100A100002F0E6FB03E002F0EAFB00E000BF00BFEB
:100A20000837BD4680BD000080B483B000AF786059
:100A3000064BD3F8802005497B681343C1F880300A
:100A400000BF0C37BD465DF8047B704700080058B6
:100A500080B483B000AF7860054B1A6804497B68A6
:100A600013430B6000BF0C37BD465DF8047B704735
:100A70000008005880B483B000AF0D4B9B6A9BB256
:100A80007B600B4B9B6A9BB23B6005E03B687B60E5
:100A9000074B9B6A9BB23B607A683B689A42F5D1F0
:100AA0003B6818460C37BD465DF8047B704700BFB5
:100AB0000028004080B485B000AF03460A46FB71B1
:100AC0001346BB71BA791D4913465B001344DB0022
:100AD0000B4415331B78FB73FB7B062B09D0FA7B89
:100AE000164913465B001344DB000B441433FA79B8
:100AF0001A70FA79114913465B001344DB000B446A
:100B00001533FA7B1A70FA790C4913465B001344CB
:100B1000DB000B441433BA791A70BA7907491346CB
:100B20005B001344DB000B441533FA791A7000BFE5
:100B30001437BD465DF8047B704700BFAC00002051
:100B400080B485B000AF03460A46FB711346BB7103
:100B5000294B1B78DBB2BA799A4232D0BA7927494D
:100B600013465B001344DB000B4414331B78FB7308
:100B7000FA7B224913465B001344DB000B44153318
:100B8000FA791A70FA791D4913465B001344DB00A9
:100B90000B441533BA791A70FA79184913465B0079
:100BA0001344DB000B441433FA7B1A70BA791349EF
:100BB00013465B001344DB000B441433FA791A70BC
:100BC00014E0FA790D4913465B001344DB000B4433
:100BD0001533BA791A70BA79084913465B00134481
:100BE000DB000B441433FA791A7000BF1437BD468A
:100BF0005DF8047B704700BF3C010020AC00002082
:100C000080B584B000AF0346FB714E4B1B78DBB25E
:100C1000062B18D14B4B1B78DAB24B4B1A70494A52
:100C2000FB791370FA79494913465B001344DB00E2
:100C30000B44153306221A70454B4FF0FF321A60F1
:100C40000023FB8178E000F009F90346FB81FA7983
:100C50003E4913465B001344DB000B44083319681C
:100C6000FB89FA791944394813465B001344DB00C9
:100C7000034408331960FA79344913465B0013447E
:100C8000DB000B4408331B68BB602E4B1B78DBB2C8
:100C900019462E4A0B465B000B44DB001344083315
:100CA0001B68BA689A4237D3264B1B787B737A7BD2
:100CB000264913465B001344DB000B4415331B78B5
:100CC0003B7313E07A7B214913465B001344DB003E
:100CD0000B4415331B787B737A7B1C4913465B00EE
:100CE0001344DB000B4415331B783B733B7B062B13
:100CF0000BD03A7B154913465B001344DB000B44D1
:100D000008331B68BA689A42DCD27A7BFB791146B9
:100D10001846FFF7CFFE0FE00A4B1B78DAB2FB79DB
:100D200011461846FFF70CFF064B1B78DAB2064B4C
:100D30001A70044AFB791370FB8918461037BD46B8
:100D400080BD00BF3C0100203D010020AC00002020
:100D50004001002080B485B000AF03460A46FB7115
:100D60001346BB71394B1B78DBB2FA799A4211D129
:100D7000364B1B78DAB2364B1A70FA79354913467E
:100D80005B001344DB000B4415331B78DAB22F4BA6
:100D90001A703EE0FA792F4913465B001344DB00DA
:100DA0000B4414331B78FB73FA792A4913465B0012
:100DB0001344DB000B4415331B78BB73F979FA7BC2
:100DC00024480B465B000B44DB00034415331B78BF
:100DD000D8B2204913465B001344DB000B441533A3
:100DE00002461A70BB7B062B13D0F979BA7B1948DF
:100DF0000B465B000B44DB00034414331B78D8B272
:100E0000144913465B001344DB000B4414330246C1
:100E10001A70FA790F4913465B001344DB000B4448
:100E20000C3301221A70094B1B78DBB2062B07D159
:100E3000BB79002B04D1084B4FF0FF321A6000BF82
:100E400000BF1437BD465DF8047B70473C010020AD
:100E50003D010020AC0000204001002080B582B0A0
:100E600000AF1A4B1B68B3F1FF3F26D0FFF702FE1D
:100E70007860164B1B687A689A4205D8134B1A683B
:100E80007B68D31A7B600AE0114B1B881A467B688B
:100E9000D31A3B600D4B1B683A6813447B600D4BC3
:100EA0001B781A467B6802FB03F37B600A4B1B78B6
:100EB0001A467B68D3407B6001E000237B607B683F
:100EC0009BB218460837BD4680BD00BF40010020D8
:100ED000FE020020FD020020FC02002080B582B04E
:100EE00000AF0346FB80FB88002B08D1FFF7C2FD53
:100EF0000346244A1360032004F001F93EE0FB8816
:100F0000012B03D8204B1B78012B02D0FB88013B1F
:100F1000FB8000BF1D4B1B681B68DB6803F00403EC
:100F2000002BF7D0194B1B681B68DB68DAB2174B34
:100F30001B681B6862F49062DA60154B4FF4002264
:100F4000DA60032004F0E9F8124B5B691B0C1B0408
:100F5000FA88104913434B61FFF78CFD0346094A99
:100F600013600A4B1B681B689A68084B1B681B6858
:100F700042F480629A60AFF3008000BF0837BD463C
:100F800080BD00BF40010020FC020020F8020020CC
:100F9000000800580028004080B584B000AF474BDF
:100FA0009B6803F48063B3F5806F08D100BF444BA6
:100FB0001B681B68DB6803F00403002BF7D1404B70
:100FC0001B681B689A683E4B1B681B6822F4806292
:100FD0009A603C4B1B78FB73FA7B3B4913465B00E2
:100FE0001344DB000B4408331B68BB60FFF736FF7C
:100FF0000346FB80FB88BA689A4205D20023BB8176
:10100000324B01221A704DE0FB88314A128892B2AD
:1010100013441A46BB68934206D92D4B1B88BB81EB
:101020002A4B00221A703DE0BB689AB2FB88D31AA3
:10103000BB81264B01221A7034E0FA7B2249134609
:101040005B001344DB000B4408331A68FB889A42A8
:101050000AD2FA7B1C4913465B001344DB000B44A5
:10106000083300221A6013E0FA7B174913465B002D
:101070001344DB000B4408331968FB88FA7BC91A58
:10108000114813465B001344DB0003440833196026
:10109000FA7B0D4913465B001344DB000B44153308
:1010A0001B78FB73FB7B062BC7D1BB891846FFF768
:1010B00015FF00BF1037BD4680BD00BF00280040AF
:1010C000F80200203C010020AC0000204401002078
:1010D0000003002080B58AB000AFEFF310837B617E
:1010E0007B697B6272B600BF5F4B1B681B68CA22BC
:1010F0005A625D4B1B681B6853225A625A4B1B682D
:101100001B689A68584B1B681B6822F480629A60BF
:10111000564B1B7887F8233097F823205449134601
:101120005B001344DB000B440C331B78DBB2022B57
:1011300072D197F823204E4913465B001344DB001D
:101140000B441B68FB6197F82320494913465B0059
:101150001344DB000B4410331B68BB61454B1B7809
:10116000DBB2002B50D097F82320414913465B0097
:101170001344DB000B440D331B78DBB2012B26D16B
:1011800097F8233001211846FFF7E4FD7B6A3B61A5
:101190003B6983F3108800BF97F823203449134636
:1011A0005B001344DB000B4404331A6897F82330C8
:1011B0001146184600F0D4F92B4B1B681B68CA2255
:1011C0005A62294B1B681B6853225A6214E07B6ADF
:1011D000FB60FB6883F3108800BF97F82330184644
:1011E00000F032F9204B1B681B68CA225A621E4B62
:1011F0001B681B6853225A6297F82330FA69194614
:10120000B86900F035FA25E0FFF7C6FE7B6ABB60DF
:10121000BB6883F310881DE000BF134B1B681B687D
:10122000DB6803F00403002BF7D00F4B1B681B682F
:10123000DB68DAB20C4B1B681B6862F49062DA6000
:101240000D4B4FF40022DA607B6A7B607B6883F38E
:10125000108800BF044B1B681B68FF225A6200BF46
:101260002837BD4680BD00BFF80200203C010020A9
:10127000AC000020440100200008005880B588B070
:1012800000AF03463960FB71644A3B681360634BEF
:101290001B681B68CA225A62604B1B681B6853227A
:1012A0005A625F4B9B685E4A43F0200393605C4B3D
:1012B0009B68DBB203F00703DBB2C3F10403DAB2CD
:1012C000584B1A70564B1B6903F4FE034FF4FE0291
:1012D0003A613A6992FAA2F2FA60FA687A617A6936
:1012E000002A01D1202203E07A69B2FA82F2D2B256
:1012F000D340DBB20133DAB24B4B1A70484B1B6957
:101300009BB2C3F30E039BB201339AB2474B1A80D0
:10131000464B1B88013B444A127802FB03F3A3F5BA
:10132000A073404A1278D340BB61BB694FF6FE728E
:10133000934204D93E4B4FF6FF721A8003E0BB691B
:101340009AB23B4B1A804FF40020FFF781FB4FF419
:101350000020FFF769FBFB79002B43D1354B0122BD
:101360001A70354B4FF0FF321A600023FB770CE008
:10137000FA7F324913465B001344DB000B440C3305
:1013800000221A70FB7F0133FB77FB7F052BEFD91F
:101390002B4B06221A70214B1B681B689A681F4B47
:1013A0001B681B6822F480629A601C4B1B681B68D8
:1013B000DB68DAB2194B1B681B6862F49062DA6072
:1013C000204B4FF40022DA60032003F0A6FE134BFB
:1013D0001B681B689A68114B1B681B6842F48042AB
:1013E0009A600AE00D4B1B681B68DB6803F480639E
:1013F000002B02D0032003F082FE084B1B681B6801
:10140000FF225A6200220321032003F036FE03204C
:1014100003F04DFE00BF2037BD4680BDF80200201E
:1014200000280040FC020020FD020020FE020020F7
:10143000000300204401002040010020AC000020F7
:101440003C0100200008005880B586B000AF03467C
:10145000FB71EFF31083FB60FB687B6172B600BF2A
:10146000032003F032FE384B1B681B68CA225A6205
:10147000354B1B681B6853225A62FA79334913466D
:101480005B001344DB000B440C331B78DBB2022BF4
:1014900048D1FB7900211846FFF75CFC2C4B1B78E8
:1014A000FB74FB7C062B35D12A4B9B6803F48063CD
:1014B000B3F5806F08D100BF234B1B681B68DB6846
:1014C00003F00403002BF7D11F4B1B681B689A68BD
:1014D0001D4B1B681B6822F480629A6000BF1A4B88
:1014E0001B681B68DB6803F00403002BF7D0164B66
:1014F0001B681B68DB68DAB2134B1B681B6862F45D
:101500009062DA60144B4FF40022DA60032003F09B
:1015100004FE07E0114B1B78DBB2FA7C9A4201D043
:10152000FFF73AFD084B1B681B68FF225A62032035
:1015300003F0BDFD7B69BB60BB6883F3108800BF0F
:1015400000BF1837BD4680BDF8020020AC00002067
:101550003C01002000280040000800583D01002008
:1015600080B586B000AF03463960FB71FA793C491B
:1015700013465B001344DB000B440C331B78DBB2D7
:10158000022B03D1FB791846FFF75EFFEFF31083C0
:10159000FB60FB687B6172B600BF032003F095FD22
:1015A000304B1B681B68CA225A622E4B1B681B6893
:1015B00053225A62FA792A4913465B001344DB002E
:1015C0000B440C3302221A70FA79254913465B004A
:1015D0001344DB000B4408333A681A60FA79204957
:1015E00013465B001344DB000B4404333A681A6073
:1015F000FB791846FFF704FB03467B821A4B1B78E6
:101600007B741A4B1B78DBB27A7C9A4202D0FFF7CC
:10161000C3FC13E0FA79124913465B001344DB0064
:101620000B44083319687B8AFA79C91A0C481346A7
:101630005B001344DB00034408331960094B1B684B
:101640001B68FF225A62032003F031FD7B69BB60F7
:10165000BB6883F3108800BF00BF1837BD4680BD4C
:10166000AC000020F80200203C0100203D010020D9
:1016700080B584B000AFF8600B467A60FB727B687F
:10168000984700BF1037BD4680BD000080B586B0CA
:1016900000AFB9607B600346FB731346BB81002338
:1016A000FB750023BB75FB7B002B0ED1174A7B68B3
:1016B0001360174B174A1A60BB891A46B968144859
:1016C00006F08EF90346FB7500E000BFFB7D032B9F
:1016D00016D801A252F823F0E9160008EF16000808
:1016E000F5160008FB1600080023BB7509E001236E
:1016F000BB7506E00223BB7503E00323BB7500E066
:1017000000BFBB7D18461837BD4680BD541400206D
:10171000441500200038014080B582B000AF7860E9
:101720007B681B681A46094B9A4207D1084B1B6815
:10173000002B05D0064B1B68984701E000BF00E076
:1017400000BF00BF0837BD4680BD00BF0038014064
:101750005414002080B483B000AF7860074BD3F8F6
:1017600080207B68DB4305491340C1F8803000BF0F
:101770000C37BD465DF8047B704700BF0008005879
:1017800080B483B000AF7860074BD3F890207B68BB
:10179000DB4305491340C1F8903000BF0C37BD460C
:1017A0005DF8047B704700BF0008005880B483B028
:1017B00000AF78604FF0B0430A4AC3F89C204FF066
:1017C000B043D3F89C3023F47C527B681B024FF06B
:1017D000B0411343C1F89C3000BF0C37BD465DF8E3
:1017E000047B7047FECAFECA80B483B000AF786045
:1017F0004FF0B043D3F8903023F018024FF0B041CF
:101800007B681343C1F8903000BF0C37BD465DF8CC
:10181000047B704780B400AF4FF0B043D3F89030F2
:101820004FF0B04243F48033C2F8903000BFBD4661
:101830005DF8047B704780B400AF4FF0B043D3F83D
:1018400090304FF0B04223F48033C2F8903000BFA4
:10185000BD465DF8047B704780B400AF4FF0B043E5
:10186000D3F8943003F08063B3F1806F01D101238A
:1018700000E000231846BD465DF8047B704780B445
:1018800000AF4FF0B043D3F8943003F08053B3F17E
:10189000805F01D1012300E000231846BD465DF8BA
:1018A000047B704780B485B000AF78604FF0B043E0
:1018B0009A6C4FF0B0417B6813438B644FF0B04398
:1018C0009A6C7B681340FB60FB6800BF1437BD4611
:1018D0005DF8047B704780B485B000AF78604FF04E
:1018E000B043DA6C4FF0B0417B681343CB644FF0E8
:1018F000B043DA6C7B681340FB60FB6800BF1437B1
:10190000BD465DF8047B704780B485B000AF786059
:101910004FF0B0431A6D4FF0B0417B6813430B6535
:101920004FF0B0431A6D7B681340FB60FB6800BF4B
:101930001437BD465DF8047B704780B483B000AFB8
:10194000786039607B685A683B681B041A437B687F
:101950005A6000BF0C37BD465DF8047B704780B409
:1019600083B000AF786039607B685A683B681A437F
:101970007B685A6000BF0C37BD465DF8047B70473A
:1019800080B483B000AF786039607B685A693B6887
:101990001B041A437B685A6100BF0C37BD465DF8D3
:1019A000047B704780B483B000AF786039607B6897
:1019B0005A693B681A437B685A6100BF0C37BD46C1
:1019C0005DF8047B704780B483B000AF7860396005
:1019D0007B683A689A6000BF0C37BD465DF8047BAF
:1019E000704780B483B000AF786039607B683A6834
:1019F0009A6100BF0C37BD465DF8047B704700005C
:101A000080B400AF054B1B69044A23F00403136143
:101A100000BFBD465DF8047B704700BF00ED00E0ED
:101A200080B483B000AF78607B68FF225A6200BF49
:101A30000C37BD465DF8047B704780B483B000AFBF
:101A400078607B68CA225A627B6853225A6200BF60
:101A50000C37BD465DF8047B704780B483B000AF9F
:101A6000786039607B689B6823F007023B681A4303
:101A70007B689A6000BF0C37BD465DF8047B7047F9
:101A800080B500AF0F4B4FF400421A6103F01CF910
:101A900000F069F900F053F900F016F800F048F989
:101AA00000F0A3F900F037F900F018F900F0DAF8C7
:101AB00000F0E0F8FEF7D4FE4FF0FF3009F0C8FF69
:101AC000FAE700BF0040005880B5AEB000AF07F1A4
:101AD00070034822002118460AF00EFA07F1540359
:101AE00000221A605A609A60DA601A615A619A613B
:101AF0003B1D5022002118460AF0FEF903F0F4FFC6
:101B00000020FFF771FE2F4B1B6823F4C0632D4AA2
:101B100043F4007313602B4B1B6803F4C0633B60FA
:101B20003B6807233B674FF480337B670123BB6728
:101B30004FF48073FB674023C7F880300023C7F859
:101B40009C3007F17003184604F062FB0346002B3B
:101B500001D000F07BF96F237B650223BB65002376
:101B6000FB6500233B6600237B660023BB660023E6
:101B7000FB6607F154030121184604F0D5FE034625
:101B8000002B01D000F062F943F603037B600023D1
:101B9000FB6100233B624FF480737B644FF480430E
:101BA000BB640223FB6410233B653B1D184605F014
:101BB000FCFA0346002B01D000F048F900BFB8370B
:101BC000BD4680BD0004005880B500AF234B244AB9
:101BD0001A60224B4FF4E1325A60204B00229A6087
:101BE0001E4B0022DA601D4B00221A611B4B0C2297
:101BF0005A611A4B00229A61184B4FF40042DA6185
:101C0000164B00221A62154B00225A62134B002217
:101C10009A62124805F094FE0346002B01D000F0B2
:101C200015F900210D4806F0A1FD0346002B01D057
:101C300000F00CF90021094806F0D6FD0346002B00
:101C400001D000F003F9054806F057FD0346002BCC
:101C500001D000F0FBF800BF80BD00BF441500209C
:101C60000038014080B400AF00BFBD465DF8047B82
:101C70007047000080B500AF164B174A1A60154B2D
:101C800000225A60134B0F229A60124B47F6FF72E4
:101C9000DA60104B00221A610E4B00229A610D4B44
:101CA0000022DA610B4B00225A610A4805F004FD5C
:101CB0000346002B01D000F0C9F80748FFF7BDFE2E
:101CC00000210548FFF7C9FE0348FFF7A9FE00BF42
:101CD00080BD00BFD01500200028004080B500AFB7
:101CE0000420FFF7DFFD0220FFF7DCFD0120FFF7F6
:101CF000D9FD00220F210E2003F0BFF90E2003F0C2
:101D0000D6F900220F213A2003F0B7F93A2003F068
:101D1000CEF900BF80BD80B500AF0420FFF7DBFD2A
:101D20000120FFF7D8FD0220FFF7D5FD00BF80BDE1
:101D300080B400AF00BFBD465DF8047B704780B53E
:101D400082B000AF002008F04FFB78607B68002B6A
:101D500005D07B689B791846FFF728FD00BF00BFC0
:101D60000837BD4680BD80B500AF00F027F800F011
:101D700003F800BF80BD000080B500AF4FF48010B5
:101D8000FFF7C2FD3F210C48FFF71DFE3F210A4827
:101D9000FFF727FE3F210848FFF7CFFD3F21064808
:101DA000FFF7EEFD3F210448FFF7D9FD3F21024830
:101DB000FFF7F8FD00BF80BD000C005880B500AFF4
:101DC000FFF74AFD0346002B0DD0FFF758FD0346F1
:101DD000002B08D103F088FE03F086FEFFF71AFD02
:101DE000FFF729FD00BF00BF80BD80B500AF4FF0F9
:101DF000FF30FFF7AFFC6FF05000FFF7C1FC00BFF2
:101E000080BD80B584B000AF786002F0CBFFB860D1
:101E10007B68FB60FB68B3F1FF3F0AD002F0DAFF9A
:101E200003461A46FB681344FB6002E0FFF7E8FD37
:101E300030BF02F0B7FF0246BB68D31AFA689A4275
:101E4000F4D800BF00BF1037BD4680BD80B400AFDE
:101E500000BFBD465DF8047B704780B483B000AF1F
:101E600078604FF0B043D3F8903023F440724FF0D5
:101E7000B0417B681343C1F8903000BF0C37BD46BA
:101E80005DF8047B704780B400AF4FF0B043D3F8E7
:101E900090304FF0B04243F40043C2F8903000BF9E
:101EA000BD465DF8047B704780B485B000AF7860B4
:101EB0004FF0B043DA6C4FF0B0417B681343CB6412
:101EC0004FF0B043DA6C7B681340FB60FB6800BFE7
:101ED0001437BD465DF8047B704780B485B000AF11
:101EE00078604FF0B0431A6D4FF0B0417B681343F8
:101EF0000B654FF0B0431A6D7B681340FB60FB68C5
:101F000000BF1437BD465DF8047B704780B485B0D0
:101F100000AF78604FF0B0439A6D4FF0B0417B68EE
:101F200013438B654FF0B0439A6D7B681340FB60A1
:101F3000FB6800BF1437BD465DF8047B704780B472
:101F400085B000AF78604FF0B043DA6D4FF0B0412C
:101F50007B681343CB654FF0B043DA6D7B68134069
:101F6000FB60FB6800BF1437BD465DF8047B70471B
:101F700080B485B000AF78604FF0B0431A6E4FF078
:101F8000B0417B6813430B664FF0B0431A6E7B6819
:101F90001340FB60FB6800BF1437BD465DF8047B4F
:101FA000704780B500AF4FF40020FFF796FF002286
:101FB00000212E2003F061F82E2003F078F800BFF6
:101FC00080BD000080B58CB000AF786007F11C03C5
:101FD00000221A605A609A60DA601A617B681B6896
:101FE0006C4A93426FD10120FFF7A9FF0120FFF750
:101FF0005BFF0C23FB6102233B6200237B62032314
:10200000BB620823FB6207F11C0319464FF09040A6
:1020100003F0A6FB4023FB6102233B6200237B62AB
:102020000023BB620823FB6207F11C0319464FF033
:10203000904003F095FB584B584A1A60564B1122BA
:102040005A60554B10229A60534B0022DA60524B73
:1020500080221A61504B00225A614F4B00229A6134
:102060004D4B0022DA614C4B00221A624A4803F0C1
:1020700063F80346002B01D0FFF7E8FE4FF08853CA
:10208000FB6000233B6100233B7500237B7501232C
:10209000BB6107F10C0319463F4803F021FB0346DF
:1020A000002B01D0FFF7D2FE7B683B4A5A673A4AC1
:1020B0007B68936200220021252002F0DEFF2520AC
:1020C00002F0F5FF61E07B681B68354A93425CD102
:1020D0004FF48040FFF74CFF0120FFF7E5FE0220A0
:1020E000FFF7E2FE4FF40063FB6102233B62002333
:1020F0007B620023BB620723FB6207F11C031946C6
:102100004FF0904003F02CFBC023FB6102233B62A5
:1021100001237B620323BB620723FB6207F11C03DD
:102120001946204803F01CFB1F4B204A1A601E4B27
:102130000F225A601C4B10229A601B4B0022DA605F
:10214000194B80221A61184B00225A61164B00224B
:102150009A61154B0022DA61134B00221A62124871
:1021600002F0EAFF0346002B01D0FFF76FFE7B6809
:102170000D4A5A670C4A7B68936200220021242092
:1021800002F07BFF242002F092FF00BF3037BD46F3
:1021900080BD00BF00800040F415002044000240D4
:1021A0000038014000040048E414002044040240C8
:1021B00080B582B000AF78607B681B680B4A9342A1
:1021C00010D103F091FC03F08FFC4FF48070FFF707
:1021D00044FEFFF758FE4FF48060FFF797FE7868E3
:1021E00005F058FB00BF0837BD4680BD0028004001
:1021F00080B400AF00BFBD465DF8047B704780B47B
:1022000000AFFEE780B400AFFEE780B400AFFEE7AA
:1022100080B400AFFEE780B400AF00BFBD465DF8FC
:10222000047B704780B400AF00BFBD465DF8047BFF
:10223000704780B400AF00BFBD465DF8047B7047B7
:1022400080B500AF02F09AFD00BF80BD80B500AF41
:10225000024803F0F3F800BF80BD00BFF415002072
:1022600080B500AF024805F03BFC00BF80BD00BF59
:102270004415002080B500AF024805F031FC00BFD6
:1022800080BD00BF5814002080B500AF03F008FCEB
:1022900000BF80BD80B500AF024803F0CFF800BF9B
:1022A00080BD00BFE414002080B500AF102003F013
:1022B000DFFB00BF80BD80B500AFFEF70BFF00BFA6
:1022C00080BD80B500AF02F073FA00BF80BD80B55D
:1022D00000AF02F035FA00BF80BD80B586B000AF18
:1022E000F860B9607A6000237B610AE0AFF3008098
:1022F0000146BB685A1CBA60CAB21A707B690133C6
:102300007B617A697B689A42F0DB7B6818461837F4
:10231000BD4680BD80B483B000AF78604FF0FF331E
:1023200018460C37BD465DF8047B704780B483B017
:1023300000AF786039603B684FF400525A60002368
:1023400018460C37BD465DF8047B704780B483B0F7
:1023500000AF7860012318460C37BD465DF8047B5A
:10236000704780B485B000AFF860B9607A60002330
:1023700018461437BD465DF8047B704780B584B0BD
:1023800000AF7860114B1B68002B02D10F4B104A35
:102390001A600E4B1B68FB600C4B1A687B68134479
:1023A0006A46934207D909F06FFD03460C221A6072
:1023B0004FF0FF3306E0054B1A687B681344034A6D
:1023C0001360FB6818461037BD4680BD040300202B
:1023D000A816002080B400AF034B1B681846BD460A
:1023E0005DF8047B704700BF8075FF1F80B400AFAD
:1023F000034B1B68DBB21846BD465DF8047B704793
:102400008475FF1F80B400AF034B1B681B0A18467E
:10241000BD465DF8047B70478475FF1FB0B58CB076
:1024200000AF454B3C461D460FCD0FC40FCD0FC42A
:1024300095E80F0007C4237000F0E0FE01210220A0
:1024400009F0D6FA3D4A00214FF4007009F0E4FB90
:102450003B46184608F016F90346002B01D0FFF75B
:10246000F5FC00F0E1FE08F091FF354A0021022062
:1024700009F0D2FB334A0021042009F0CDFB324A97
:102480000021012009F0C8FB304A0021082009F092
:10249000C3FB2F4A0021102009F0BEFB2D4A00216A
:1024A000202009F0B9FB2C4A0021402009F0B4FBA0
:1024B0002A4A0021802009F0AFFB294B002283F833
:1024C0008C20274B002283F88D20254B002283F897
:1024D000A220234B002283F88E20214B002283F878
:1024E0008F201F4B002283F890201D4B002283F881
:1024F00091201B4B002283F89220194B002283F875
:10250000A320174B002283F8A420154B002283F848
:10251000A520134B002283F8A620114B002283F83C
:10252000A72001F013FC0021012009F097FB00BF58
:102530003037BD46B0BD00BF90CF0008B5A0000841
:10254000BD330008E534000849340008653500084B
:10255000E535000865360008E536000865370008EF
:1025600048010020F0B59BB006AF78607B6801336E
:10257000FB630023FB64FB6B0233BB63FB6B1B78C9
:10258000FF2B0AD0FF2B00F3B285052B00F0E6806D
:102590003E2B00F0B98100F0AABD6B4B01221A70EE
:1025A000FB6B02337B637B6B1B889BB240F2074261
:1025B000934204D040F6020293426ED0C1E07B6B9E
:1025C0000233BB62BB6A1B78022B40F0B680BB6A49
:1025D0005B78002B40F0B180002002F073FA5B487A
:1025E00009F02EFD5A4B93F8A230012B09D1584B1C
:1025F00093F88D30052B04D00021042009F02EFB28
:102600004AE0534B93F8A330012B09D1504B93F878
:102610008E30052B04D00021082009F01FFB3BE081
:102620004B4B93F8A430012B09D1494B93F88F30D1
:10263000052B04D00021102009F010FB2CE0444BA6
:1026400093F8A530012B09D1414B93F89030052B1D
:1026500004D00021202009F001FB1DE03C4B93F841
:10266000A630012B09D13A4B93F89130052B04D0B9
:102670000021402009F0F2FA0EE0354B93F8A73024
:10268000012B5AD1324B93F89230052B55D00021B3
:10269000802009F0E3FA50E04FE07B6B02333B63AC
:1026A0003B6B1B889AB22B4B1A803B6B9A78294B59
:1026B0009A703B6BB3F803309AB2264B9A803B6B0F
:1026C000B3F805309AB2234BDA803B6BB3F807308E
:1026D0009AB2204B1A813B6BB3F809309AB21D4B6A
:1026E0005A813B6BB3F80B309AB21A4B9A81194B53
:1026F0001888184BD988174B1C89164B5D89154BC8
:102700009B89144A92780026049603921022029222
:102710001022019200932B46224607F077FA0346D7
:1027200087F82F300C4809F08BFC97F82F30002BDE
:1027300006D0022002F0ACF902E000BF00F0D7BCE6
:1027400000BF00F0D4BC00BF5C160020C0CF000862
:1027500048010020F0010020F0CF0008BB6BB3F867
:1027600001309AB2804BB3F896309A4215D17F4827
:1027700009F066FC7C4B002283F88D207A4B4FF6E3
:10278000FF72A3F896207A4B01221A70794B1A88AF
:10279000774B5A80764801F025F8BB6BB3F80130CF
:1027A0009AB2714BB3F894309A4210D1724809F042
:1027B00047FC6D4B0022A3F894206D4B03221A7046
:1027C0006B4B4FF6FF725A80694801F00BF8BB6BF8
:1027D000B3F801309AB2644BB3F898309A4215D1ED
:1027E000664809F02DFC604B002283F88E205E4B7A
:1027F0004FF6FF72A3F898205D4B09221A705D4BCB
:102800001A885B4B5A805A4800F0ECFFBB6BB3F858
:1028100001309AB2544BB3F89A309A4215D15848C5
:1028200009F00EFC504B002283F88F204E4B4FF6E0
:10283000FF72A3F89A204E4B0A221A704D4B1A8849
:102840004B4B5A804A4800F0CDFFBB6BB3F80130C8
:102850009AB2454BB3F89C309A4215D1494809F0D9
:10286000EFFB414B002283F890203F4B4FF6FF7265
:10287000A3F89C203E4B0B221A703E4B1A883C4B0F
:102880005A803B4800F0AEFFBB6BB3F801309AB200
:10289000354BB3F89E309A4215D13B4809F0D0FB36
:1028A000314B002283F891202F4B4FF6FF72A3F893
:1028B0009E202F4B0C221A702E4B1A882C4B5A80BC
:1028C0002B4800F08FFFBB6BB3F801309AB2264B58
:1028D000B3F8A0309A4240F009842C4809F0B0FBCC
:1028E000214B002283F892201F4B4FF6FF72A3F872
:1028F000A0201F4B0D221A701E4B1A881C4B5A80A9
:102900001B4800F06FFFF1E3FB6B02337B627B6AD5
:102910001B78012B03D0022B00F07A82E7E37B6A5D
:1029200001333B613B69B3F801309AB2114B1A8015
:102930003B69DB78FB73FB7B002B40F05682012365
:1029400087F84B30012387F84A30012387F8493054
:10295000012387F84830012387F84730012387F89F
:10296000463000233B6494E04801002004D0000876
:102970005C1600206E16002030D000085CD00008E5
:1029800088D00008B4D00008E0D000080CD10008BE
:102990009B4A3B6C13441A7839693B6C0B440533F2
:1029A0001B789A420CBF01230023DBB25AB297F97D
:1029B0004B3013405BB287F84B30924A3B6C134468
:1029C0001A7839693B6C0B4405331B789A420CBF6B
:1029D00001230023DBB25AB297F94A3013405BB2AD
:1029E00087F84A30884A3B6C13441A7839693B6C43
:1029F0000B4405331B789A420CBF01230023DBB242
:102A00005AB297F9493013405BB287F849307F4A90
:102A10003B6C13441A7839693B6C0B4405331B78C3
:102A20009A420CBF01230023DBB25AB297F9483017
:102A300013405BB287F84830754A3B6C13441A78F0
:102A400039693B6C0B4405331B789A420CBF012358
:102A50000023DBB25AB297F9473013405BB287F8D4
:102A600047306C4A3B6C13441A7839693B6C0B4411
:102A700005331B789A420CBF01230023DBB25AB204
:102A800097F9463013405BB287F846303B6C013310
:102A90003B643B6C052B7FF77BAF97F84B30012BEA
:102AA0003ED15D4809F0CCFA5C4B052283F88D20BD
:102AB0005B4B1A88594BA3F89620594B1A88574BF1
:102AC000DA82584B00221A70554B1A88554B5A809F
:102AD000544800F087FE514BB3F89630184606F084
:102AE00086FD034687F82F3097F82F30002B06D14C
:102AF0004D4809F0A5FA4D4809F006FA02E04C48A5
:102B000009F002FA454B93F88E30052B08D0434B61
:102B100093F8A330012B03D10021082009F09EF87F
:102B200097F84A30012B3BD1424809F089FA3B4BD8
:102B3000052283F88E203A4B1A88384BA3F8982048
:102B4000374B1A88354B1A83364B04221A70344B94
:102B50001A88344B5A80334800F044FE2F4BB3F8A8
:102B60009830184606F043FD034687F82F3097F853
:102B70002F30002B03D1304809F0C6F902E02C4871
:102B800009F0C2F9254B93F88D30052B08D0234B63
:102B900093F8A230012B03D10021042009F05EF844
:102BA00097F84930012B5CD1244809F049FA1B4BB6
:102BB000052283F88F201A4B1A88184BA3F89A2005
:102BC000174B1A88154B5A83164B05221A70144B53
:102BD0001A88144B5A80134800F004FE0F4BB3F8C8
:102BE0009A30184606F003FD034687F82F3097F811
:102BF0002F30002B24D1104809F086F923E000BFC4
:102C0000701600207816002080160020681600201C
:102C1000881600205416002038D1000848010020F2
:102C20006E1600205C16002060D1000894D10008C8
:102C3000C4D1000804D200082CD200085CD20008DD
:102C4000B64809F061F9B64B93F89030052B08D0DF
:102C5000B34B93F8A530012B03D10021202008F0BD
:102C6000FDFF97F84830012B3BD1AE4809F0E8F959
:102C7000AB4B052283F89020AB4B1A88A84BA3F8E6
:102C80009C20A94B1A88A64B9A83A84B06221A703F
:102C9000A54B1A88A54B5A80A44800F0A3FDA04B71
:102CA000B3F89C30184606F0A2FC034687F82F3094
:102CB00097F82F30002B03D19D4809F025F902E049
:102CC000964809F021F9964B93F88F30052B08D0E0
:102CD000934B93F8A430012B03D10021102008F06E
:102CE000BDFF97F84730012B3BD1924809F0A8F976
:102CF0008B4B052283F891208B4B1A88884BA3F8C5
:102D00009E20894B1A88864BDA83884B07221A70DB
:102D1000854B1A88854B5A80844800F063FD804BB0
:102D2000B3F89E30184606F062FC034687F82F3051
:102D300097F82F30002B03D17D4809F0E5F802E029
:102D4000764809F0E1F8764B93F89230052B08D0DD
:102D5000734B93F8A730012B03D10021802008F09A
:102D60007DFF97F84630012B40F0BC81724809F096
:102D700067F96B4B052283F892206B4B1A88684BDE
:102D8000A3F8A020684B1A88654B1A84674B082269
:102D90001A70654B1A88654B5A80644800F022FD12
:102DA0005F4BB3F8A030184606F021FC034687F8C5
:102DB0002F3097F82F30002B03D15D4809F0A4F88D
:102DC00002E0564809F0A0F8554B93F89130052BD6
:102DD00000F08881524B93F8A630012B40F082819D
:102DE0000021402008F03AFF7CE1544809F028F91E
:102DF0004D4B1A884A4BA3F894204C4B02221A7070
:102E0000494B1A88494B5A80484800F0EBFC69E16D
:102E10007B6A01333B623B6A5B78FB773B6A5B7A98
:102E2000BB773B6A09330133BB610023FB64FB7F43
:102E3000002B40F059814FE1FB6CBA6913441B78B9
:102E4000FB75FB6C0133BA6913441B78BB75BB7D02
:102E5000162B35DC002B40F33981013B152B00F29A
:102E6000358101A252F823F0CD300008CD300008A2
:102E7000CD300008CD300008CD300008CD3000083E
:102E8000CD300008CD300008CD300008CD3000082E
:102E9000CD300008CD300008CD300008CD3000081E
:102EA000CD300008CD300008CD300008CD3000080E
:102EB000CD300008CD300008CD300008CD300008FE
:102EC000FF2B40F00381FB7D062B40F2FB80FB6C67
:102ED0000233BA6913441B78012B40F0F380184881
:102EE00009F0AEF8FB6C0333BA6913441B78833BDB
:102EF000072B00F2E98001A252F823F0452F0008C9
:102F0000852F0008C9300008C9300008C52F000807
:102F1000053000084530000885300008C4D100089D
:102F20004801002084D200086E1600205C160020A4
:102F30002CD20008ACD20008D4D20008FCD2000881
:102F400024D300086C4809F07BF86C4B012283F80D
:102F5000A2203B6ADA786A4B1A703B6A1A79684B8E
:102F60005A703B6A5A79664B9A703B6A9A79644BFD
:102F7000DA703B6ADA79624B1A713B6A1A7A604BF3
:102F80005A71A2E05D4B012283F8A3205D4809F04D
:102F900057F83B6ADA785C4B1A703B6A1A795A4BDD
:102FA0005A703B6A5A79584B9A703B6A9A79564BD9
:102FB000DA703B6ADA79544B1A713B6A1A7A524BCF
:102FC0005A7182E0514809F03BF84C4B012283F8DA
:102FD000A4203B6ADA784E4B1A703B6A1A794C4B44
:102FE0005A703B6A5A794A4B9A703B6A9A79484BB5
:102FF000DA703B6ADA79464B1A713B6A1A7A444BAB
:103000005A7162E03D4B012283F8A520414809F046
:1030100017F83B6ADA78404B1A703B6A1A793E4BD4
:103020005A703B6A5A793C4B9A703B6A9A793A4B90
:10303000DA703B6ADA79384B1A713B6A1A7A364B86
:103040005A7142E0354808F0FBFF2C4B012283F80F
:10305000A6203B6ADA78324B1A703B6A1A79304BF9
:103060005A703B6A5A792E4B9A703B6A9A792C4B6C
:10307000DA703B6ADA792A4B1A713B6A1A7A284B62
:103080005A7122E01D4B012283F8A720254808F041
:10309000D7FF3B6ADA78244B1A703B6A1A79224BC5
:1030A0005A703B6A5A79204B9A703B6A9A791E4B48
:1030B000DA703B6ADA791C4B1A713B6A1A7A1A4B3E
:1030C0005A7102E000BF02E000BF00E000BFFB7DDC
:1030D0000133FA6C1344FB64BB7FFA6C9A42FFF62F
:1030E000ABAE01E000BF02E000BF00E000BF012383
:1030F00018465437BD46F0BD40D3000848010020B3
:103100007016002068D300087816002090D30008BD
:1031100080160020B8D3000868160020E0D300080D
:103120008816002008D400085416002080B485B00A
:1031300000AF0346FB80254BB3F89630FA889A42DD
:1031400004D1224B93F88D30FB7338E01F4BB3F85A
:103150009830FA889A4204D11C4B93F88E30FB7356
:103160002DE01A4BB3F89A30FA889A4204D1174BE3
:1031700093F88F30FB7322E0144BB3F89C30FA883D
:103180009A4204D1114B93F89030FB7317E00F4B28
:10319000B3F89E30FA889A4204D10C4B93F89130E0
:1031A000FB730CE0094BB3F8A030FA889A4204D1C3
:1031B000064B93F89230FB7301E00023FB73FB7B1B
:1031C00018461437BD465DF8047B7047480100205F
:1031D00080B500AF0021022008F040FD00BF80BD97
:1031E00080B400AF00BFBD465DF8047B704780B47B
:1031F00000AF00BFBD465DF8047B704780B582B06C
:1032000000AF064B3B60064B7B603B4619460548CA
:1032100006F034FF00BF0837BD4680BD28000320FC
:103220004B3A0008133A0008F0B58FB006AF002300
:103230003B8006F0C7FC00F085FBF861FA690621C7
:10324000002006F0FFFBFB695A79564B1A72FB69A6
:103250001A79544B5A72FB69DA78524B9A72FB69AD
:103260009A78504BDA72FB695A784E4B1A73FB69A5
:103270001A784C4B5A734C4A1021182006F0E2FB86
:103280004A4A1021082006F0DDFB4EF66E53BB6063
:10329000FFF7A0F803467B603B1D1A4606212E204F
:1032A00006F0D0FB404A1021182006F0CBFB3F4A25
:1032B0001021082006F0C6FB1821012006F02BFC87
:1032C00005F050FF0023FB76FB7E43F00103FB7605
:1032D000FB7E43F00403FB76FB7E002B1ED0344BB9
:1032E0007B6107F11202F87E07F10E03019307F1EB
:1032F0001003009313460722002105F0EBFC7C8AA3
:103300003D8A7869FCF73CFF0346DAB27B6900939B
:10331000134600222946204606F0E2F8788AF98909
:103320003B4600930223002206F0DAF8214B0122EB
:103330001A70204B1B78184605F0DAFB1D4B012252
:103340005A701C4B08221A711A4B10225A71194BD1
:103350000122DA70174B184A9A60164B01229A70B4
:10336000144B9C78134B5D78124B1B79114A5279A0
:103370001049C9780F48806800260496039002918E
:1033800001920093002301222946204605F0FAFB12
:10339000084B9B78002B01D005F083FD00BF24373C
:1033A000BD46F0BD0C000020DCDB0008ECDB0008B3
:1033B00030D400084801002007B2010080B582B077
:1033C00000AF1E4B93F88D30052B18D11B4B93F893
:1033D0008E30052B13D1194B93F88F30052B0ED15E
:1033E000164B93F89030052B09D1144B93F891307C
:1033F000052B04D1114B93F89230052B1AD00020E5
:1034000001F046FB012300224FF448714FF448704D
:1034100005F06BFD0346FB71FB79002B03D10848D7
:1034200008F072FD06E0022001F032FB054808F0CA
:103430006BFD00BF00BF0837BD4680BD48010020BE
:1034400038D4000868D4000880B58AB008AF1F4B94
:1034500093F88C30052B34D00023FB7100230693A6
:10346000002305930023049300230393184B029336
:10347000082301930023009300234FF47A724FF442
:10348000FD71002005F056FA0346FB7111490E202C
:1034900005F0ABFC0346FB710C4B012283F88C203A
:1034A000FB79002B06D10C4808F02EFD0B4808F0E4
:1034B0002BFD06E0022001F0EBFA094808F024FD9C
:1034C00000BF00BF0837BD4680BD00BF48010020D7
:1034D000040000200C00002098D40008A0D40008AC
:1034E000C0D4000880B58AB008AF1B4808F00CFDB6
:1034F0001A4B93F88D30052B29D0102306931023F7
:1035000005934FF4C8730493002303934FF4487357
:103510000293A023019300230093114B00224FF448
:1035200048714FF4487005F058FD0346FB71FB7974
:10353000002B04D1094B042283F88D2007E00220E0
:1035400001F0A6FA054B002283F88D2000BF00BFD2
:103550000837BD4680BD00BFE4D400084801002004
:103560007016002080B58AB008AF1B4808F0CCFC6C
:103570001A4B93F88E30052B29D010230693102375
:1035800005934FF4C8730493002303934FF44873D7
:103590000293A023019300230093114B00224FF4C8
:1035A00048714FF4487005F018FD0346FB71FB7934
:1035B000002B04D1094B042283F88E2007E002205F
:1035C00001F066FA054B002283F88E2000BF00BF91
:1035D0000837BD4680BD00BF14D500084801002053
:1035E0007816002080B58AB008AF1B4808F08CFC24
:1035F0001A4B93F88F30052B29D0102306931023F4
:1036000005934FF4C8730493002303934FF4487356
:103610000293A023019300230093114B00224FF447
:1036200048714FF4487005F0D8FC0346FB71FB79F4
:10363000002B04D1094B042283F88F2007E00220DD
:1036400001F026FA054B002283F88F2000BF00BF4F
:103650000837BD4680BD00BF44D5000848010020A2
:103660008016002080B58AB008AF1B4808F04CFCDB
:103670001A4B93F89030052B29D010230693102372
:1036800005934FF4C8730493002303934FF44873D6
:103690000293A023019300230093114B00224FF4C7
:1036A00048714FF4487005F098FC0346FB71FB79B4
:1036B000002B04D1094B042283F8902007E002205C
:1036C00001F0E6F9054B002283F8902000BF00BF0F
:1036D0000837BD4680BD00BF74D5000848010020F2
:1036E0006816002080B58AB008AF1B4808F00CFCB3
:1036F0001A4B93F89130052B29D0102306931023F1
:1037000005934FF4C8730493002303934FF4487355
:103710000293A023019300230093114B00224FF446
:1037200048714FF4487005F058FC0346FB71FB7973
:10373000002B04D1094B042283F8912007E00220DA
:1037400001F0A6F9054B002283F8912000BF00BFCD
:103750000837BD4680BD00BFA4D500084801002041
:103760008816002080B58AB008AF1B4808F0CCFB53
:103770001A4B93F89230052B29D01023069310236F
:1037800005934FF4C8730493002303934FF44873D5
:103790000293A023019300230093114B00224FF4C6
:1037A00048714FF4487005F018FC0346FB71FB7933
:1037B000002B04D1094B042283F8922007E0022059
:1037C00001F066F9054B002283F8922000BF00BF8C
:1037D0000837BD4680BD00BFD4D500084801002091
:1037E0005416002080B584B000AF786007F108035C
:1037F00000221A609A807B681B780D2B00F29D8056
:1038000001A252F823F000BF4138000851380008E7
:103810003B3900086938000873380008833800080D
:1038200093380008A3380008B3380008C3380008EC
:10383000DB380008F33800080B390008233900088A
:1038400081233B7207F10803184600F0C5F975E0C3
:1038500080233B7207F10803184600F0BDF90021F0
:10386000042008F0FBF969E00021012008F0F6F9D6
:1038700064E081237B7207F10803184600F0ACF97D
:103880005CE08123BB7207F10803184600F0A4F93D
:1038900054E08123FB7207F10803184600F09CF9FD
:1038A0004CE081233B7307F10803184600F094F9BC
:1038B00044E081237B7307F10803184600F08CF97C
:1038C0003CE080237B7207F10803184600F084F97E
:1038D0000021082008F0C2F930E08023BB7207F114
:1038E0000803184600F078F90021102008F0B6F916
:1038F00024E08023FB7207F10803184600F06CF9FE
:103900000021202008F0AAF918E080233B7307F17A
:103910000803184600F060F90021402008F09EF9E5
:103920000CE080237B7307F10803184600F054F97C
:103930000021802008F092F900E000BF00BF10379E
:10394000BD4680BD80B586B000AFFEF743FD38614F
:103950003B69B3F1FF3F23D0FEF754FDB860FEF79B
:1039600045FD78603B69DAB2164B1A703B691B0A59
:10397000DAB2144B5A703B691B0CDAB2114B9A70D5
:103980007B68DAB20F4BDA70BB68DAB20D4B1A7192
:10399000BB681B0ADAB20B4B5A710A4B7B610BE016
:1039A000002006F021FDF860FB68002B02D0FB68C8
:1039B0007B6101E0044B7B617B6918461837BD468B
:1039C00080BD00BF08030020D4DB000880B582B0B2
:1039D00000AF786000214FF4007008F03FF900BF9D
:1039E0000837BD4680BD80B582B000AF7860012049
:1039F00008F0A0F900BF0837BD4680BD80B582B091
:103A000000AF7860012008F0B5F900BF0837BD4667
:103A100080BD80B584B000AF78607B68FB60FB68D8
:103A20005B680833184607F019FD0346FB72FB7A02
:103A3000002B03D0FB6801221A7002E0FB68002211
:103A40001A7000BF1037BD4680BD80B584B000AF8E
:103A50000346FB71FB79002B02D0012B07D00DE050
:103A600040F2FF33FB60F86808F024F906E040F20A
:103A7000FF33FB60F86808F03DF900BF00BF103766
:103A8000BD4680BD80B582B000AF78607B681B7892
:103A9000002B08D0012B0DD1094808F0D1FA094BB1
:103AA00001225A7007E0084808F0CAFA054B0022C4
:103AB0005A7000E000BF00BF0837BD4680BD00BFA0
:103AC00004D600086002002040D6000880B582B00D
:103AD00000AF78607B681B78032B31D801A252F8C5
:103AE00023F000BFF53A0008033B0008113B000833
:103AF000193B0008154808F007FA154B01221A7007
:103B00001FE0144808F000FA114B00221A7018E068
:103B1000114808F0F9F914E0104808F0F5F97B684D
:103B20005B681A780A4B9A727B685B685A78084B14
:103B3000DA720B4A002142F6503000F0DBF900E067
:103B400000BF00BF0837BD4680BD00BF7CD600085F
:103B500060020020B4D60008ECD6000818D7000890
:103B60006A02002080B582B000AF194A00214FF4EC
:103B7000807008F051F8174B00221A70154B002284
:103B80005A70144B00229A7080233B70114B002214
:103B9000DA70104B00221A710E4B00225A710D4B35
:103BA00000229A710B4B0022DA7180237B708023F4
:103BB000BB708023FB7080233B7180237B713B466D
:103BC000184600F009F800BF0837BD4680BD00BFA9
:103BD0005D3D00086002002080B582B000AF7860D3
:103BE0007B681B785BB2002B06DA7B681B7803F0DE
:103BF0007F03DAB2234B9A707B685B785BB2002B51
:103C000006DA7B685B7803F07F03DAB21D4BDA706B
:103C10007B689B785BB2002B06DA7B689B7803F0AD
:103C20007F03DAB2174B1A717B68DB785BB2002B2B
:103C300006DA7B68DB7803F07F03DAB2114B5A7146
:103C40007B681B795BB2002B06DA7B681B7903F07B
:103C50007F03DAB20B4B9A717B685B795BB2002B06
:103C600006DA7B685B7903F07F03DAB2054BDA7121
:103C7000054942F6603006F0DFF900BF0837BD465F
:103C800080BD00BF600200206202002080B582B0CB
:103C900000AF78607B681B78022B24D1144B1B7813
:103CA000002B19D07B685B681B781946114808F017
:103CB0002BF9114808F028F97B685B685A780C4B9F
:103CC0005A727B685B681A78094B1A720B494FF677
:103CD000426006F0B5FC07E0094808F015F906480F
:103CE00008F012F900E000BF00BF0837BD4680BDF4
:103CF0006002002058D7000898D70008680200200A
:103D0000A0D7000880B582B000AF0023FB7100236C
:103D1000FB7108E0FB790A4A1B01134400221A7068
:103D2000FB790133FB71FB79052BF3D9054807F0CB
:103D30007BFB054808F084F900BF0837BD4680BD0D
:103D400000020020693F0008F4D7000880B500AFEA
:103D5000FFF708FFFFF7D6FF00BF80BD80B582B038
:103D600000AF0123BB800023FB71A4E0FB795A4A1A
:103D70001B0113441B78063B062B00F2988001A21E
:103D800052F823F0413E0008493E0008A13D0008DA
:103D9000D73D0008AF3E00080D3E00087B3E0008FE
:103DA0004E4808F04DF9FB794B4A1B01134402338E
:103DB0001888FB79484A1B01134408331988FB799A
:103DC000454A1B01134408331B8802339BB21A4631
:103DD00005F0C6FC6CE0424808F032F9FB793E4A37
:103DE0001B01134402331888FB793B4A1B0113441F
:103DF0000C331988FB79384A1B0113440C331B8898
:103E000002339BB21A4605F0ABFC51E0354808F08E
:103E100017F9FB79304A1B01134402331888FB79E8
:103E20002D4A1B0113440E3319883B1D022205F055
:103E300002FDFB79284A1B01134405221A7037E062
:103E4000294808F0FDF833E0284808F0F9F8FB7934
:103E5000214A1B01134402331888FB791E4A1B01B7
:103E6000134404331988FB791B4A1B01134406339E
:103E70001B881A4605F009FC1AE01D4808F0E0F816
:103E8000FB79154A1B01134402331888FB79124A47
:103E90001B0113440E3319883B1D022205F0CBFC95
:103EA000FB790D4A1B01134405221A7000E000BF84
:103EB000FB790133FB71FB79052B08D8FB79064AA6
:103EC0001B0113441B78002B7FF450AF00BF00BFD1
:103ED0000837BD4680BD00BF0002002018D800088A
:103EE0004CD8000884D80008A8D80008C4D8000816
:103EF000F4D8000880B584B000AF03463A60FB8078
:103F00000B467B714223FB730023BB731BE0FB88D2
:103F100042F65032934212D1BB7B124A1B0113442A
:103F200002331888BB7B0F4A1B01134408331988DE
:103F30003B68022205F004FD0346FB7300E000BF6E
:103F4000BB7B0133BB73BB7B052B06D8BB7B054A10
:103F50001B0113441B78002BD9D1FB7B184610376B
:103F6000BD4680BD0002002080B596B000AF7860ED
:103F7000002387F84D307B680133BB64BB6C1B7832
:103F8000FF2B40F0C382BB6C02337B647B6C1B88CD
:103F90009BB2A3F604430C2B00F2AC8201A252F8B0
:103FA00023F000BFD9420008F54400088F41000803
:103FB000F5440008F5440008F5440008D93F00081E
:103FC000F5440008F5440008F5440008F5440008ED
:103FD0000B4400089D4400087B6C0233BB63BB6B41
:103FE0001A785B781B021343FB86002387F8553051
:103FF0002EE097F85530BC4A1B01134402331B884E
:104000001846FFF793F8034687F8353097F8553090
:10401000B54A1B0113441B78052B14D197F8353092
:10402000002B10D197F85530AF4A1B0113440022E2
:104030001A7097F85530AC4A1B01134402334FF6FF
:10404000FF721A8010E097F85530013387F8553029
:1040500097F85530052B07D897F85530A24A1B0121
:1040600013441B78002BC4D197F85530052B00F270
:10407000438297F855309C4A1B0113440233FA8E51
:104080001A80BB6BDA78BB6B9B78B2FBF3F387F8D3
:104090003430BB6B9B78142B40F02E82102387F8B2
:1040A0005630002387F857306AE097F85630BA6BDD
:1040B00013441B799AB297F85630B96B0B4404330A
:1040C00001331B789BB21B029BB213437B867B8E12
:1040D0004FF64062934249D197F85530824A1B010E
:1040E000134402331B881946804807F00DFF97F8E8
:1040F0005630103BBA6B13441B7999B297F856307F
:10410000103BBA6B1344043301331B789BB21B0280
:104110009AB297F855300A4391B2734A1B0113447F
:1041200004330A461A8097F856300E3BBA6B134494
:104130001B7999B297F856300E3BBA6B134404338F
:1041400001331B789BB21B029AB297F855300A4391
:1041500091B2654A1B01134406330A461A8097F848
:104160005530614A1B01134407221A7097F85630E4
:10417000063387F8563097F85730013387F85730B1
:1041800097F8572097F834309A428ED3B4E17B6C7D
:104190000233FB62002387F8533004E097F8533072
:1041A000013387F8533097F85330052B0BD897F825
:1041B00053304D4A1B01134402331A88FB6A1B8893
:1041C0009BB29A42EAD197F85330052B00F29681C0
:1041D000112387F85430FB6A9B78152B40F08E81B1
:1041E000FB6ADB78013BDAB2FB6ADA706FE097F8C2
:1041F0005430FA6A13441B799AB297F85430F96A2A
:104200000B44043301331B789BB21B029BB2134354
:104210007B8597F854300E3BFA6A13441B799AB2A7
:1042200097F854300E3BF96A0B44043301331B7882
:104230009BB21B029BB213433B857B8D4FF64162C1
:1042400093421AD197F85330274A1B011344023383
:104250001B881946264807F057FE97F85330224A24
:104260001B01134408221A7097F853301E4A1B0191
:10427000134408333A8D1A801EE07B8D4FF642625C
:10428000934219D197F85330174A1B011344023354
:104290001B881946174807F037FE97F85330124A23
:1042A0001B01134409221A7097F853300E4A1B0160
:1042B00013440C333A8D1A80FB6ADB78153BDAB273
:1042C000FB6ADA7097F85430153387F85430FB6A7C
:1042D000DB78002B8BD111E17B6C02337B620023F6
:1042E00087F850300DE000BF000200201CD9000804
:1042F00058D9000890D9000897F85030013387F852
:10430000503097F85030052B0BD897F85030834A2F
:104310001B01134402331A887B6A1B889BB29A42A2
:10432000EAD197F85030052B00F2EA807B6ADB78FF
:104330009B0887F82330002387F852307B6A9B78EC
:10434000012B40F0DD80002387F8513056E097F8CC
:1043500052307A6A13441B799AB297F85230796ACC
:104360000B44043301331B789BB21B029BB21343F3
:104370003B8497F8523002337A6A13441B799AB21D
:1043800097F852300233796A0B44043301331B78B7
:104390009BB21B029BB21343FB83FB8B42F60212C0
:1043A000934221D197F850305C4A1B0113440233E9
:1043B0001B8819465A4807F0A7FD97F85030574A0E
:1043C0001B0113441B78092B0ED197F85030534A28
:1043D0001B0113440E333A8C1A8097F850304F4A21
:1043E0001B0113440B221A7097F85230043387F8DC
:1043F000523097F85130013387F8513097F85120F7
:1044000097F823309A42A2D37AE07B6C0233FB63A5
:10441000002387F84F3004E097F84F30013387F8D6
:104420004F3097F84F30052B0BD897F84F303B4A59
:104430001B01134402331A88FB6B1B889BB29A4200
:10444000EAD197F84F30052B5CD8FB6B5B889AB2AA
:1044500097F84F3031491B010B440C331B889A42AB
:1044600050D1FB6B1B79022B4CD197F84F302B4A64
:104470001B01134402331B8819462A4807F044FDE8
:1044800002233B73FB6B1B793B75FB6B05333B6175
:1044900007F10C031846FFF7F9FB33E07B6C02339E
:1044A0003B64214807F0CCFD0A2007F045FD0023BE
:1044B00087F84E3004E097F84E30013387F84E30DD
:1044C00097F84E30052B0BD897F84E30134A1B0146
:1044D000134402331A883B6C1B889BB29A42EAD180
:1044E00097F84E30052B0FD800214FF4807007F05D
:1044F000B5FB09E000BF0AE000BF08E000BF06E02E
:1045000000BF04E000BF02E000BF00E000BF97F87A
:104510004D3018465837BD4680BD00BF0002002010
:10452000CCD9000814DA00085CDA000880B400AFC7
:10453000054BDB68044A43F40043D36000BFBD462B
:104540005DF8047B704700BF0004005880B483B05E
:1045500000AF7860064BD3F8D42005497B6813433D
:10456000C1F8D43000BF0C37BD465DF8047B7047FE
:104570000008005880B483B000AF7860054B1A6A19
:1045800004497B6813430B6200BF0C37BD465DF8DE
:10459000047B70470008005880B485B000AF786095
:1045A0004FF0B0431A6D4FF0B0417B6813430B6579
:1045B0004FF0B0431A6D7B681340FB60FB6800BF8F
:1045C0001437BD465DF8047B704780B485B000AFFA
:1045D00078604FF0B043D3F850214FF0B0417B6882
:1045E0001343C1F850314FF0B043D3F850217B68EA
:1045F0001340FB60FB6800BF1437BD465DF8047BC9
:10460000704780B483B000AF78607B681B6843F468
:1046100080327B681A6000BF0C37BD465DF8047BB2
:10462000704780B483B000AF78607B681B6843F04C
:1046300001027B681A6000BF0C37BD465DF8047B41
:10464000704780B483B000AF786039607B685A6887
:104650003B681B04DB431A407B685A6000BF0C3781
:10466000BD465DF8047B704780B483B000AF7860CE
:1046700039607B685A683B681B041A437B685A6040
:1046800000BF0C37BD465DF8047B704780B483B033
:1046900000AF786039607B685A683B68DB431A403A
:1046A0007B685A6000BF0C37BD465DF8047B7047DD
:1046B00080B483B000AF786039607B683A689A60F4
:1046C00000BF0C37BD465DF8047B704780B483B0F3
:1046D00000AF786039603B681A047B689A6000BF5D
:1046E0000C37BD465DF8047B704780B483B000AFE3
:1046F000786039607B68DA683B6813403A689A42B0
:1047000001D1012300E0002318460C37BD465DF8B7
:10471000047B704780B483B000AF786039607B68F9
:10472000DA693B6813403A689A4201D1012300E0FC
:10473000002318460C37BD465DF8047B7047000027
:1047400080B500AF02211948FFF7E4FF0346002BB4
:1047500009D0164B5B68DB4303F00203002B02D049
:1047600000F0EAF81FE001211048FFF7D3FF0346ED
:10477000002B08D00D4B5B6803F00103002B02D126
:1047800000F09EF80FE008210848FFF7C3FF03463A
:10479000002B09D0054B5B68DB4303F00803002BBB
:1047A00002D000F015F900BF00BF80BD000C00581A
:1047B00080B500AF02212248FFF797FF0346002B88
:1047C00009D11F4B5B68DB4303F40033002B02D09D
:1047D00000F0A6F831E002211948FFF786FF0346F2
:1047E000002B09D1164B5B68DB4303F40033002B2D
:1047F00002D000F095F820E008211148FFF775FF7E
:104800000346002B09D10E4B5B68DB4303F4002306
:10481000002B02D000F0BEF80FE020210848FFF77F
:1048200064FF0346002B09D1054B5B68DB4303F4AF
:104830000013002B02D000F04FF800BF00BF80BD76
:10484000000C005880B500AF4FF48010FFF7BDFE9C
:104850004FF40070FFF77AFE4FF40070FFF78AFE06
:1048600040BF20BFFFF762FE00BF80BD80B500AF34
:104870004FF48010FFF790FE0648FFF7D2FE054880
:10488000FFF7BFFE2C2000F012FC2D2000F00FFCE3
:1048900000BF80BD000C005880B500AF0121024868
:1048A000FFF7F4FE00BF80BD000C005880B500AFDC
:1048B00001210248FFF70AFF00BF80BD000C00582D
:1048C00080B500AF06F0CAFE01210248FFF7F0FEF6
:1048D00000BF80BD000C005880B500AF2021034808
:1048E000FFF7C2FE06F0EAFE00BF80BD000C0058D4
:1048F00080B500AF02210248FFF7C8FE00BF80BDAF
:10490000000C005880B500AF02210448FFF7DEFE1E
:1049100002210248FFF795FE00BF80BD000C005841
:1049200080B500AF02210348FFF79EFE06F016FF98
:1049300000BF80BD000C005880B500AF06F024FF1A
:1049400002210248FFF7B4FE00BF80BD000C0058F2
:1049500080B582B000AF786008210C48FFF7C5FE33
:104960000346002B07D00A4A7B68136008210748DA
:10497000FFF767FE06E07B68984708210348FFF7CA
:10498000A5FE00BF0837BD4680BD00BF000C005823
:104990001003002080B500AF08210648FFF764FE31
:1049A000054B1B68984708210248FFF78FFE00BFA0
:1049B00080BD00BF000C00581003002080B500AF80
:1049C00008210248FFF762FE00BF80BD000C0058BE
:1049D00080B500AF06F080FF08210248FFF768FEAF
:1049E00000BF80BD000C005880B485B000AF786077
:1049F0004FF0B043DA6C4FF0B0417B681343CB64A7
:104A00004FF0B043DA6C7B681340FB60FB6800BF7B
:104A10001437BD465DF8047B7047000080B588B050
:104A200000AF0346FB7107F10C0300221A605A60C5
:104A30009A60DA601A610220FFF7D6FFFB79124A0A
:104A400032F81330FB6001233B6100237B610223BA
:104A5000BB61FB790D4A52F8233007F10C02114675
:104A6000184600F07DFEFB79084A52F82300FB79D6
:104A7000054A32F813300022194600F0E1FF00BF6A
:104A80002037BD4680BD00BFFCDB00081C000020B5
:104A900080B582B000AF0346FB71FB79074A52F83C
:104AA0002300FB79064A32F813300122194600F040
:104AB000C7FF00BF0837BD4680BD00BF1C000020F7
:104AC000FCDB000880B582B000AF0346FB71FB79C8
:104AD000074A52F82300FB79064A32F813300022C5
:104AE000194600F0ADFF00BF0837BD4680BD00BFCE
:104AF0001C000020FCDB000880B588B000AF034636
:104B00000A46FB711346BB7107F10C0300221A60C1
:104B10005A609A60DA601A61FB79002B03D1042095
:104B2000FFF762FF0CE0FB79012B03D10820FFF7B0
:104B30005BFF05E0FB79022B02D10820FFF754FF51
:104B4000BB79002B17D1FB79204A32F81330FB6078
:104B500000233B6101237B610223BB61FB791C4A7B
:104B600052F8233007F10C021146184600F0F8FD08
:104B70000120FDF746F9BB79012B22D1FB79134ABD
:104B800032F81330FB6001237B61124B3B61FB79F0
:104B90000F4A52F8233007F10C021146184600F074
:104BA000DFFDFB790C4AD35C5BB200220F21184673
:104BB00000F063FAFB79084AD35C5BB2184600F058
:104BC00076FA00BF2037BD4680BD00BF04DC000878
:104BD00028000020000021100CDC000880B400AF89
:104BE000264B00229A60254BD3F88830234A43F4A1
:104BF0007003C2F888304FF0B0431B684FF0B042EA
:104C000043F0010313604FF0B0434FF4E0229A6089
:104C10004FF0B0431A684FF0B041194B13400B608E
:104C20004FF0B043D3F894304FF0B04223F0050377
:104C3000C2F894304FF0B043D3F898304FF0B04200
:104C400023F00103C2F898304FF0B0430D4ADA6008
:104C50004FF0B0430B4A1A614FF0B0431B684FF05E
:104C6000B04223F4802313604FF0B04300229A61D6
:104C700000BFBD465DF8047B704700BF00ED00E05B
:104C8000FBFEF6FA0010042280B400AF054B5B680F
:104C9000044A43F00103536000BFBD465DF8047B46
:104CA000704700BF002004E080B400AF054B5B6894
:104CB000044A43F00203536000BFBD465DF8047B25
:104CC000704700BF002004E080B582B000AF002331
:104CD000FB710C4B1B680B4A43F480731360032079
:104CE00000F0C0F9002000F00FF80346002B02D0BE
:104CF0000123FB7101E0FDF754F9FB7918460837F1
:104D0000BD4680BD0040005880B584B000AF7860DB
:104D10000023FB73174B1B78002B24D001F0B0FF4E
:104D20000246144B1B7819464FF47A73B3FBF1F328
:104D3000B2FBF3F3184600F0D6F90346002B0FD16F
:104D40007B680F2B09D8002279684FF0FF3000F004
:104D500094F9094A7B68136007E00123FB7304E0C0
:104D60000123FB7301E00123FB73FB7B1846103723
:104D7000BD4680BD3C0000203800002080B400AF5C
:104D8000064B1B781A46064B1B681344044A1360F3
:104D900000BFBD465DF8047B704700BF3C000020AB
:104DA0009016002080B400AF034B1B681846BD4628
:104DB0005DF8047B704700BF9016002080B400AF00
:104DC000034B1B681846BD465DF8047B704700BF67
:104DD0003800002080B400AF034B1B781846BD4656
:104DE0005DF8047B704700BF3C00002080B500AF39
:104DF000FFF74AFF00BF80BD80B500AFFFF754FF4B
:104E000000BF80BD80B485B000AF78607B6803F0E0
:104E10000703FB600C4BDB68BB60BA684FF6FF030F
:104E20001340BB60FB681A02BB68134343F0BF63C7
:104E300043F40033BB60044ABB68D36000BF14373F
:104E4000BD465DF8047B704700ED00E080B400AF24
:104E5000044BDB681B0A03F007031846BD465DF8E8
:104E6000047B704700ED00E080B483B000AF0346E0
:104E7000FB7197F90730002B0BDBFB7903F01F0266
:104E8000074997F907305B09012000FA02F241F85F
:104E9000232000BF0C37BD465DF8047B704700BF80
:104EA00000E100E080B483B000AF0346FB7197F9E6
:104EB0000730002B12DBFB7903F01F020A4997F938
:104EC00007305B09012000FA02F2203341F8232069
:104ED000BFF34F8F00BFBFF36F8F00BF00BF0C3712
:104EE000BD465DF8047B704700E100E080B483B00C
:104EF00000AF0346FB7197F90730002B0CDBFB7901
:104F000003F01F02074997F907305B09012000FAF7
:104F100002F2403341F8232000BF0C37BD465DF854
:104F2000047B704700E100E080B483B000AF03462B
:104F3000FB7197F90730002B0CDBFB7903F01F02A4
:104F4000074997F907305B09012000FA02F2603344
:104F500041F8232000BF0C37BD465DF8047B704745
:104F600000E100E080B483B000AF03463960FB711C
:104F700097F90730002B0ADB3B68DAB20C4997F946
:104F800007301201D2B20B4483F800230AE03B68D9
:104F9000DAB20849FB7903F00F03043B1201D2B2E5
:104FA0000B441A7600BF0C37BD465DF8047B704792
:104FB00000E100E000ED00E080B489B000AFF860EF
:104FC000B9607A60FB6803F00703FB61FB69C3F11A
:104FD0000703042B28BF0423BB61FB690433062BA2
:104FE00002D9FB69033B00E000237B614FF0FF32F5
:104FF000BB6902FA03F3DA43BB681A407B699A4043
:105000004FF0FF317B6901FA03F3D9437B680B4012
:10501000134318462437BD465DF8047B70470000F3
:1050200080B582B000AF78607B68013BB3F1807FD0
:1050300001D301230FE00A4A7B68013B53600F2133
:105040004FF0FF30FFF78EFF054B00229A60044BB4
:1050500007221A60002318460837BD4680BD00BFEE
:1050600010E000E080B582B000AF78607868FFF7AC
:10507000C9FE00BF0837BD4680BD80B586B000AF11
:105080000346B9607A60FB73FFF7E0FE78617A68E7
:10509000B9687869FFF790FF024697F90F3011461B
:1050A0001846FFF75FFF00BF1837BD4680BD80B5CB
:1050B00082B000AF0346FB7197F907301846FFF73F
:1050C000D3FE00BF0837BD4680BD80B582B000AFBB
:1050D0000346FB7197F907301846FFF7E3FE00BF60
:1050E0000837BD4680BD80B582B000AF7860786873
:1050F000FFF796FF034618460837BD4680BD80B5CA
:1051000082B000AF0346FB7197F907301846FFF7EE
:10511000EDFE00BF0837BD4680BD80B582B000AF50
:105120000346FB7197F907301846FFF7FDFE00BFF5
:105130000837BD4680BD000080B584B000AF786000
:105140007B68002B01D101238EE07B681B681A4627
:10515000474B9A420FD87B681B681A46454B13444D
:10516000454AA2FB03231B099A007B685A647B68AB
:10517000424A1A640EE07B681B681A46404B13448F
:105180003D4AA2FB03231B099A007B685A647B6893
:105190003C4A1A647B68022283F825207B681B68DE
:1051A0001B68FB60FB6823F4FF4323F07003FB6084
:1051B0007B689A687B68DB681A437B681B691A43C3
:1051C0007B685B691A437B689B691A437B68DB6970
:1051D0001A437B681B6A1343FA681343FB607B68BE
:1051E0001B68FA681A60786800F016FA7B689B689A
:1051F000B3F5804F02D17B6800225A607B685A6801
:105200007B689B6C02F03F021A607B68DB6C7A68FB
:10521000126D5A607B685B68002B10D07B685B68FE
:10522000042B0CD8786800F035FA7B685B6D00229F
:105230001A607B689B6D7A68D26D5A6008E07B6863
:1052400000225A657B6800229A657B680022DA6535
:105250007B680022DA637B68012283F825207B6863
:10526000002283F82420002318461037BD4680BD55
:1052700007040240F8FFFDBFCDCCCCCC00000240BB
:10528000F8FBFDBF0004024080B586B000AFF860B7
:10529000B9607A603B600023FB75FB6893F82430AB
:1052A000012B01D1022366E0FB68012283F8242050
:1052B000FB6893F82530DBB2012B55D1FB68022245
:1052C00083F82520FB680022DA63FB681B681A68F4
:1052D000FB681B6822F001021A603B687A68B968B3
:1052E000F86800F05AF9FB681B6B002B08D0FB68CC
:1052F0001B681A68FB681B6842F00E021A600FE018
:10530000FB681B681A68FB681B6822F004021A60BD
:10531000FB681B681A68FB681B6842F00A021A6087
:10532000FB689B6C1B6803F48033002B07D0FB6881
:105330009B6C1A68FB689B6C42F480721A60FB6875
:105340005B6D002B07D0FB685B6D1A68FB685B6DBB
:1053500042F480721A60FB681B681A68FB681B685D
:1053600042F001021A6005E0FB68002283F8242065
:105370000223FB75FB7D18461837BD4680BD80B5FE
:1053800084B000AF78600023FB737B6893F825300E
:10539000DBB2022B05D07B680422DA630123FB73A6
:1053A00047E07B681B681A687B681B6822F00E0266
:1053B0001A607B681B681A687B681B6822F0010210
:1053C0001A607B689B6C1A687B689B6C22F4807205
:1053D0001A607B685B6C03F01C027B681B6C01210C
:1053E00001FA02F25A607B68DB6C7A68126D5A60CF
:1053F0007B685B6D002B0CD07B685B6D1A687B68EB
:105400005B6D22F480721A607B689B6D7A68D26D46
:105410005A607B68012283F825207B68002283F88C
:1054200024207B689B6B002B03D07B689B6B786888
:105430009847FB7B18461037BD4680BD80B584B0C9
:1054400000AF78607B681B6C1B68FB607B681B6827
:105450001B68BB607B685B6C03F01C0304229A40F2
:10546000FB681340002B26D0BB6803F00403002B1D
:1054700021D07B681B681B6803F02003002B07D139
:105480007B681B681A687B681B6822F004021A603C
:105490007B685B6C03F01C027B681B6C042101FAC7
:1054A00002F25A607B681B6B002B71D07B681B6B10
:1054B000786898476CE07B685B6C03F01C03022201
:1054C0009A40FB681340002B2ED0BB6803F0020308
:1054D000002B29D07B681B681B6803F02003002B7E
:1054E0000BD17B681B681A687B681B6822F00A0274
:1054F0001A607B68012283F825207B685B6C03F0CF
:105500001C027B681B6C022101FA02F25A607B6864
:10551000002283F824207B68DB6A002B38D07B686C
:10552000DB6A7868984733E07B685B6C03F01C03A8
:1055300008229A40FB681340002B2AD0BB6803F076
:105540000803002B25D07B681B681A687B681B68E2
:1055500022F00E021A607B685B6C03F01C027B6811
:105560001B6C012101FA02F25A607B680122DA63A6
:105570007B68012283F825207B68002283F82420A1
:105580007B685B6B002B04D07B685B6B786898470B
:1055900000BF00BF1037BD4680BD80B485B000AFEE
:1055A000F860B9607A603B60FB68DB6CFA68126D8A
:1055B0005A60FB685B6D002B04D0FB689B6DFA683A
:1055C000D26D5A60FB685B6C03F01C02FB681B6CBD
:1055D000012101FA02F25A60FB681B683A685A60BE
:1055E000FB689B68102B08D1FB681B687A689A607F
:1055F000FB681B68BA68DA6007E0FB681B68BA687A
:105600009A60FB681B687A68DA6000BF1437BD4691
:105610005DF8047B7047000080B485B000AF78600F
:105620007B681B681A46174B9A420AD87B685B6CEA
:105630009B089B0003F1804303F502337A6893646F
:1056400007E07B685B6C9B089A000F4B13447A68F9
:1056500093647B681B68DBB2083B0C4AA2FB032304
:105660001B09FB607B680A4ADA64FB6803F01F03CE
:1056700001229A407B681A6500BF1437BD465DF869
:10568000047B7047070402401C080240CDCCCCCC00
:105690008008024080B485B000AF78607B685B68AA
:1056A00003F03F03FB60FA680B4B13449B001A4660
:1056B0007B685A657B68094A9A65FB68013B03F081
:1056C000030301229A407B68DA6500BF1437BD46A8
:1056D0005DF8047B704700BF3F8200104009024024
:1056E00080B483B000AF786039607B6893F8253070
:1056F000DBB2012B2BD17B6893F82430012B01D135
:10570000022325E07B68012283F824207B689B6CC0
:105710001A68124B13403A6811683A68D268013A25
:10572000D20411433A68526811433A68127A12045B
:1057300011433A68527A520211437A68926C0B43D1
:1057400013607B68002283F82420002300E00123FB
:1057500018460C37BD465DF8047B7047FFFD00E03E
:1057600080B487B000AF7860396000237B614CE182
:105770003B681A6801217B6901FA03F31340FB605F
:10578000FB68002B00F03E813B685B68012B0BD06F
:105790003B685B68022B07D03B685B68112B03D02A
:1057A0003B685B68122B30D17B689B683B617B69EF
:1057B0005B00032202FA03F3DB433A6913403B61C7
:1057C0003B68DA687B695B0002FA03F33A691343CA
:1057D0003B617B683A699A607B685B683B61012248
:1057E0007B6902FA03F3DB433A6913403B613B6890
:1057F0005B681B0903F001027B6902FA03F33A6953
:1058000013433B617B683A695A607B68DB683B61A4
:105810007B695B00032202FA03F3DB433A6913401E
:105820003B613B689A687B695B0002FA03F33A6963
:1058300013433B617B683A69DA603B685B68022B23
:1058400003D03B685B68122B23D17B69DA087B6845
:10585000083253F822303B617B6903F007039B0059
:105860000F2202FA03F3DB433A6913403B613B68C2
:105870001A697B6903F007039B0002FA03F33A6994
:1058800013433B617B69DA087B680832396943F866
:1058900022107B681B683B617B695B00032202FA74
:1058A00003F3DB433A6913403B613B685B6803F0F9
:1058B00003027B695B0002FA03F33A6913433B611D
:1058C0007B683A691A603B685B6803F08053002B81
:1058D00000F09880544A7B699B08023352F82330C9
:1058E0003B617B6903F003039B000F2202FA03F381
:1058F000DB433A6913403B617B68B3F1904F19D0A9
:105900007B684A4A934213D07B68494A93420DD040
:105910007B68484A934207D07B68474A934201D14B
:10592000042308E0072306E0032304E0022302E047
:10593000012300E000237A6902F003029200934001
:105940003A6913433B6138497B699B0802333A69E2
:1059500041F82320394BD3F880303B61FB68DB43AF
:105960003A6913403B613B685B6803F48033002B6A
:1059700003D03A69FB6813433B61304A3B69C2F884
:1059800080302E4BD3F884303B61FB68DB433A69AF
:1059900013403B613B685B6803F40033002B03D08A
:1059A0003A69FB6813433B61244A3B69C2F884307F
:1059B000224B1B683B61FB68DB433A6913403B6148
:1059C0003B685B6803F48013002B03D03A69FB68E3
:1059D00013433B61194A3B691360184B5B683B6199
:1059E000FB68DB433A6913403B613B685B6803F447
:1059F0000013002B03D03A69FB6813433B610F4A45
:105A00003B6953607B6901337B613B681A687B6942
:105A100022FA03F3002B7FF4ABAE00BF00BF1C37AC
:105A2000BD465DF8047B704700000140000400485B
:105A300000080048000C004800100048000800580A
:105A400080B483B000AF78600B467B8013467B70D8
:105A50007B78002B03D07A887B689A6102E07A8891
:105A60007B689A6200BF0C37BD465DF8047B7047C7
:105A700080B582B000AF0346FB80084BDA68FB8834
:105A80001340002B06D0054AFB88D360FB881846DC
:105A9000FAF7ACFF00BF0837BD4680BD00080058CC
:105AA00080B582B000AF0A4BDB687B60084B1A6898
:105AB0007B68DB43064913400B60054A7B685360F3
:105AC000786800F007F800BF0837BD4680BD00BF0A
:105AD0000015005880B483B000AF786000BF0C3769
